:020000040800F2
:1000000000000520413901089139010891390108A2
:100010009139010891390108913901080000000067
:1000200000000000000000000000000091390108FD
:100030009139010800000000913901089139010847
:100040009139010891390108913901089139010864
:100050009139010891390108913901089139010854
:100060009139010891390108913901089139010844
:100070009139010891390108913901089139010834
:100080009139010891390108913901089139010824
:100090009139010891390108913901089139010814
:1000A0009139010891390108913901089139010804
:1000B000051C00089139010891390108913901089E
:1000C00091390108913901089139010891390108E4
:1000D00091390108411C0008913901089139010842
:1000E00091390108913901089139010891390108C4
:1000F00091390108913901089139010891390108B4
:1001000091390108913901081D1C00089139010835
:100110009139010891390108913901089139010893
:100120009139010891390108913901089139010883
:100130009139010891390108913901089139010873
:100140009139010891390108913901089139010863
:100150009139010891390108913901089139010853
:100160009139010891390108913901089139010843
:100170009139010891390108913901080000000006
:100180009139010891390108913901089139010823
:100190009139010891390108913901089139010813
:1001A0009139010891390108913901089139010803
:1001B00091390108913901089139010891390108F3
:0801C000913901089139010891
:0401C8000000000033
:0801CC007400000001000000B6
:1002000010B5054C237833B9044B13B10448AFF350
:1002100000800123237010BD8C210120000000000C
:10022000C801000808B5034B1BB103490348AFF3ED
:10023000008008BD0000000090210120C8010008D6
:10024000A3F5803A704700BF174B002B08BF134B34
:100250009D46FFF7F5FF00218B460F461348144AD1
:10026000121A13F037FE0E4B002B00D098470D4B9F
:10027000002B00D098470020002104000D000D48FD
:10028000002802D00C4815F03DFC13F065FD20005D
:1002900029000DF07BFA13F04FFD00BF00000800AD
:1002A0000000000000000000000000008C21012080
:1002B00084C30120055B0108FD6A01080449054B60
:1002C0000A8C1B5C22F0C40213430B84704700BFEE
:1002D0005C3601209CC501080B495FFA80FC10B414
:1002E0000A4C0B8C23F0C40214F80C3013430204A4
:1002F00005D408B943F040030B8410BC704743F0A9
:1003000080030B8410BC70475C3601209CC401083C
:100310000C495FFA80FC002810B40B4C0B8C23F0C6
:10032000C40214F80C3043EA020305DB08BF43F0B3
:1003300040030B8410BC704743F080030B8410BC57
:10034000704700BF5C3601209CC4010803064CBF07
:1003500040F47F4080B270470204034600D47047E7
:1003600001481843704700BF0000FFFF0A440346DE
:1003700030B50244164C174DB4F820C0D0B22CF062
:10038000C40E15F800C0144D4CEA0E0C83EA010EA1
:100390001EF0800F0CEA050C05D183EA02052D063C
:1003A00048BF4CF4006C12F4407FA4F820C003D086
:1003B000228C42F00102228403F00F0301F00F01AE
:1003C0000B44DB0603D5238C43F01003238430BD9C
:1003D0005C3601209CC50108EEF7FFFF30B584466E
:1003E0001B4C08441B4D238C024423F0C400D3B2A1
:1003F000EB5C150443EA000390B29BB248BF43F0A4
:10040000800308B943F04003134D8CEA010E2B40E2
:100410001EF4004F238403D18CEA02052D0413D46B
:1004200012F4403F03D0238C43F0010323840CF0EB
:100430000F0C01F00F018C441CF0100F03D0238C23
:1004400043F01003238430BD43F400632384E7E7C3
:100450005C3601209CC40108EEF7FFFF03468818B4
:10046000F0B518181C4C1D4FC6B2B4F820E02CBFD4
:100470000125002517F806C02EF0C40E00284CEA0E
:100480000E0C26DB08BF4CF0400C154E93EA010F12
:100490000CEA060CA4F820C002D493EA000F13D48F
:1004A00015B9834204D11AB1228C42F00102228490
:1004B00003F00F0301F00F010B44DB0603D5238C7F
:1004C00043F010032384F0BD4CF4006CA4F820C06A
:1004D000E6E74CF0800CD8E75C3601209CC40108AC
:1004E000EEF7FFFF0346401A30B5801A164C174A44
:1004F00083EA01051FFA80FEB4F820C0C0B22CF0D8
:10050000C40C125C42EA0C028EEA030C0CEA050CE5
:100510000F4D1CF0800F02EA050218BF42F4006282
:100520001EF4807F228403D0228C42F001022284B8
:1005300003F00F0301F00F015B1ADB0603D5238CD8
:1005400043F01003238430BD5C3601209CC50108B4
:10055000EEF7FFFF0A440346A0EB020C30B51C4C3B
:100560005FFA8CF21B4D1CF4004FB4F820E01FFA28
:100570008CF0AA5C2EF0C40E42EA0E0292B218BFB2
:1005800042F0800208B942F0400283EA010583EAA2
:100590000C0E0EEA050E104D1EF4004F02EA050285
:1005A00018BF42F400621CF4803F228403D0228CE6
:1005B00042F00102228403F00F0301F00F015B1AE5
:1005C000DB0603D5238C43F01003238430BD00BF2A
:1005D0005C3601209CC40108EEF7FFFF30B50346EE
:1005E000224C801A224DB4F820C0401A2CF0C40EC0
:1005F0005FFA80FC002815F80CC04CEA0E0C1DDBDD
:100600001ED11C4D0CEA050C33EA01054CF0400CE0
:10061000A4F820C020D4834204D11AB1228C42F025
:100620000102228403F00F0301F00F015B1ADB06C5
:1006300003D5238C43F01003238430BD4CF0800C91
:100640000C4D83EA000E0CEA050C81EA03051EEA54
:10065000050FA4F820C003D54CF4006CA4F820C00A
:100660008342DBD38342D8D0DCE700BF5C36012075
:100670009CC40108EEF7FFFF0D49013010B4C0B271
:100680000B8C0C4C23F0C4028028235C43EA020349
:1006900023F401630B849BB203D0020703D010BC88
:1006A000704743F4006343F010030B8410BC7047A1
:1006B0005C3601209CC50108421C30B4134C5FFA23
:1006C00082FC134D90B2238C120423F0C40115F860
:1006D0000C3043EA01039BB223F4016307D478B9D9
:1006E00043F0400343F01003238430BC7047B0F55F
:1006F000004F9AB243F0800302D142F40863F1E75D
:1007000023840307F1D1238CECE700BF5C36012082
:100710009CC401080130134910B45FFA80FC0B8CB3
:10072000114C002823F0C40214F80C3043EA0203F1
:1007300023F4016307DB0FD143F0400343F01003C0
:100740000B8410BC7047B0F1004F9AB243F08003A5
:1007500002D142F40863F1E70B840307F1D10B8C5B
:10076000ECE700BF5C3601209CC401080E4901384B
:1007700010B4C0B20B8C0D4C23F0C4027F28235C54
:1007800043EA020323F401630B849BB205D000F01B
:100790000F020F2A03D010BC704743F4006343F0EC
:1007A00010030B8410BC70475C3601209CC5010807
:1007B000421E164910B55FFA82FE0B8C144C90B2A3
:1007C00023F0C40C120414F80E3043EA0C039BB25D
:1007D00023F4016304D460B943F040030B8410BDDB
:1007E00043F080030B8400F00F030F2BF7D10B8C29
:1007F00006E047F6FF729BB2904205D143F40063D6
:1008000043F010030B8410BD0B84ECE75C36012031
:100810009CC401080138164910B45FFA80FC0B8CA7
:10082000144C002823F0C40214F80C3043EA0203ED
:1008300023F4016305DB0DD143F040030B8410BCAE
:10084000704743F080030B8400F00F030F2BF6D1A9
:100850000B8C06E06FF000429BB2904206D143F44D
:10086000006343F010030B8410BC70470B84EBE76C
:100870005C3601209CC4010830B4064C0843064D88
:10088000238C064923F0C4022B5C13430B402384C2
:1008900030BC70475C3601209CC50108FEF7FFFFA5
:1008A000084330B40C4CC1B20C4D238C23F0C4026D
:1008B0006B5C1343020407D408B943F04003084AB1
:1008C0001340238430BC704743F08003044A134034
:1008D000238430BC704700BF5C3601209CC40108F3
:1008E000FEF7FFFF084330B40C4CC1B20C4D00289A
:1008F000238C23F0C4026B5C43EA020307DB08BFCE
:1009000043F04003074A1340238430BC704743F050
:100910008003044A1340238430BC70475C360120B6
:100920009CC40108FEF7FFFF30B4064C0840064D9A
:10093000238C064923F0C4022B5C13430B40238411
:1009400030BC70475C3601209CC50108FEF7FFFFF4
:10095000084030B40C4CC1B20C4D238C23F0C402BF
:100960006B5C1343020407D408B943F04003084A00
:100970001340238430BC704743F08003044A134083
:10098000238430BC704700BF5C3601209CC4010842
:10099000FEF7FFFF084030B40C4CC1B20C4D0028EC
:1009A000238C23F0C4026B5C43EA020307DB08BF1D
:1009B00043F04003074A1340238430BC704743F0A0
:1009C0008003044A1340238430BC70475C36012006
:1009D0009CC40108FEF7FFFF30B4064C0840064DEA
:1009E000238C064923F0C4022B5C13430B40238461
:1009F00030BC70475C3601209CC50108FEF7FFFF44
:100A0000014030B40C4CC8B20C4D238C23F0C4020E
:100A10002B5C13430A0407D409B943F04003084A86
:100A20001340238430BC704743F08003044A1340D2
:100A3000238430BC704700BF5C3601209CC4010891
:100A4000FEF7FFFF014030B40C4CC8B20C4D00293A
:100A5000238C23F0C4022B5C43EA020307DB08BFAC
:100A600043F04003074A1340238430BC704743F0EF
:100A70008003044A1340238430BC70475C36012055
:100A80009CC40108FEF7FFFF30B4064C4840064DF9
:100A9000238C064923F0C4022B5C13430B402384B0
:100AA00030BC70475C3601209CC50108FEF7FFFF93
:100AB00030B40C4C024648400B4D238C23F0C40C40
:100AC000C3B2EB5C050443EA0C0348BF43F0800368
:100AD0008A42064A08BF43F040031340238430BCD7
:100AE000704700BF5C3601209CC40108FEF7FFFF81
:100AF00030B40C4C024648400B4D238C002823F0A8
:100B0000C40CC3B2EB5C43EA0C03B8BF43F08003F0
:100B10008A42064A08BF43F040031340238430BC96
:100B2000704700BF5C3601209CC40108FEF7FFFF40
:100B300001FB00F080B220F07F039AB21BB14FF6A8
:100B400080739A4205D1064A0649138C0B401384E0
:100B50007047034A40F60103118C0B43138470471E
:100B60005C360120FEF7FFFF094B01FB00F0094A4C
:100B7000034013B113F5004F04D1138C06490B4009
:100B800013847047118C40F601030B4313847047A4
:100B90000080FFFF5C360120FEF7FFFF80FB0101B4
:100BA00000F0004353EA01020A4A10B405D0B1F143
:100BB000FF3F08BFB3F1004F05D1074C138C234012
:100BC000138410BC7047148C40F601032343138434
:100BD00010BC70475C360120FEF7FFFF01FB00F000
:100BE0000A490B8C28B943F04003094A1A400A8489
:100BF000704723F0400310F47F4F0B849BB2F4D076
:100C000040F601021A430A84704700BF5C36012097
:100C1000FEF7FFFF01FB00F038B90E4A0E4B118CB6
:100C200041F040010B40138470470A4A10B40B4C4A
:100C3000138C044023F0400399B213842CB140F686
:100C400001030B43138410BC7047034B0B40138408
:100C500010BC70475C360120FEF7FFFF0000FFFF6D
:100C6000A0FB01010D4A50EA010308D1B2F820C0EF
:100C70004CF0400C0A4B0CEA030313847047138CAE
:100C800023F040031FFA83FC13840029F2D040F6BE
:100C900001034CEA03031384704700BF5C36012054
:100CA000FEF7FFFF08B561B190FBF1FC01FB1C00F2
:100CB00082F800C0187092F90030634501D101201C
:100CC00008BD00200AF0F6FE002008BD08B561B19D
:100CD00090FBF1FC01FB1C00A2F800C01880B2F9E7
:100CE0000030634501D1012008BD00200AF0E2FE7A
:100CF000002008BD70B592B1144605461E46D317B4
:100D000012F048FE049B04FB105430601C603368F2
:100D1000DA178A4208BF834201D1012070BD00204A
:100D20000AF0C8FE002070BD10B50C4639B1B0FB0A
:100D3000F1F104FB1104012011701C7010BD084674
:100D40000AF0B8FE204610BD08B559B1B0FBF1FC61
:100D500001FB1C00A2F800C018801388634501D174
:100D6000012008BD00200AF0A5FE002008BD00BF3C
:100D700052EA030C10B5029C0BD012F05BFE039BF1
:100D800020601A602368002908BF834201D1012036
:100D900010BD00200AF08EFE002010BD02F00F02F0
:100DA00010B400FA02F3C2F11004013A00FA02F2A0
:100DB00041FA04F01049184312040B6A0FFA80FC40
:100DC0000E4C80B24CBF43F0010323F00103BCF191
:100DD000000FC2B20B6223F0C403A25C43EA020319
:100DE0009BB2B8BF43F080030B8418B90B8C43F05F
:100DF00040030B8410BC70475C3601209CC4010882
:100E000002F01F020346C2F1200010B421FA00F0E4
:100E100003FA02F41049013A2043104C93400B6A44
:100E20005FFA80FC4CBF43F0010323F0010300286C
:100E300023F0C4020B6214F80C3043EA02039BB2A5
:100E400005DB08BF43F040030B8410BC704743F040
:100E500080030B8410BC70475C3601209CC40108E1
:100E600002F00F0210B440FA02F3C2F11004013A8A
:100E700040FA02F201FA04F010491843D2070B6A53
:100E80000FFA80FC0E4C80B24CBF43F0010323F0FC
:100E90000103BCF1000FC2B20B6223F0C403A25CD9
:100EA00043EA02039BB2B8BF43F080030B8418B936
:100EB0000B8C43F040030B8410BC70475C36012060
:100EC0009CC4010802F01F0210B4C2F12004531E9A
:100ED00020FA02F2A14020FA03F3114C41EA020089
:100EE000104913F0010F0B6A5FFA80FC14BF43F046
:100EF000010323F00103002823F0C4020B6214F85D
:100F00000C3043EA02039BB205DB08BF43F0400309
:100F10000B8410BC704743F080030B8410BC7047F7
:100F20009CC401085C36012001F00703114A5942B4
:100F300000FA03F301F00701C84043EA0001138CF3
:100F4000C8B2C90709D580EAD01143F00103C90727
:100F50000AD543F400631384704780EAD01123F06C
:100F60000103C9079BB2F4D423F400639BB213843A
:100F7000704700BF5C36012001F007030F4A594259
:100F800020FA03F301F00701884043EA0001138CC3
:100F9000C8B209060FD423F001039BB280EA4001D6
:100FA000090603D543F400631384704723F40063F8
:100FB0009BB21384704743F00103EFE75C360120D6
:100FC0001E4AA2FB01C2520802EBC20210B4891AE7
:100FD0001B4CC9B2236A4A1E03F001039340C1F1BE
:100FE000090240FA02F2134300FA01F2C1F10801CA
:100FF000134340FA01F1D8B2238CCA070DD543F050
:1010000001032384226A02F00102B2EBD01F0ED04A
:1010100043F40063238410BC704723F001039BB2A8
:101020002384226A02F00102B2EBD01FF0D123F434
:1010300000639BB2238410BC704700BF398EE33835
:101040005C3601201B4AA2FB01C2520802EBC2021D
:1010500010B4891A184CC9B2236AC1F1080203F00E
:1010600001039340C1F1090200FA02F2134340FA6E
:1010700001F20139134340FA01F1D8B2238CC907B8
:101080000AD580EA400243F0010312060BD543F46F
:101090000063238410BC704780EA400223F0010300
:1010A00012069BB2F3D423F400639BB2238410BCDA
:1010B000704700BF398EE3385C36012001F1FF3CF8
:1010C00000FA0CF310B413F0800F104C238C18D0DE
:1010D00043F00103884023F0C4020D4BC0B21B5CF7
:1010E00000FA01F100FA0CFC134381EA0C0123F42D
:1010F00000630A069BB248BF43F40063238410BC1C
:10110000704723F001039BB2E4E700BF5C36012087
:101110009CC5010801F1FF3C00FA0CF330B41B043C
:10112000144C228C22D542F0010200FA01F3124D38
:1011300022F0C400DAB2AA5C1D0442EA000298B2AE
:1011400048BF42F0800208B942F040029BB222F44C
:10115000006203FA01F103FA0CF392B24B401B0454
:1011600048BF42F40062228430BC704722F0010282
:1011700092B2DAE75C3601209CC4010801F1FF3C21
:1011800030B410FA0CF3164C238C25D423F0010351
:101190009BB2884023F0C402124DC3B20028EB5C1E
:1011A00043EA020307DB08D123F4006343F0400362
:1011B000238430BC704743F0800323F4006300FABB
:1011C00001F100FA0CFC9BB291EA0C0F48BF43F40A
:1011D0000063238430BC704743F00103D9E700BFAC
:1011E0005C3601209CC4010801F00F03114A5942EA
:1011F00000FA03F301F00F01C84043EA0001138C29
:1012000088B2C90709D580EAD03143F00103C90784
:101210000AD543F400631384704780EAD03123F089
:101220000103C9079BB2F4D423F400639BB2138477
:10123000704700BF5C36012001F01F010E4AC1F16A
:101240002001138CC841C10709D580EAD07143F051
:101250000103C9070AD543F400631384704780EA89
:10126000D07123F00103C9079BB2F4D423F40063C7
:101270009BB21384704700BF5C36012001F00F035E
:101280000F4A594220FA03F301F00F01884043EA64
:101290000001138C88B209040FD423F001039BB220
:1012A00080EA4001090403D543F4006313847047C6
:1012B00023F400639BB21384704743F00103EFE70C
:1012C0005C36012001F01F010B4AC841138C0AD47F
:1012D00023F0010390EA40019BB209D423F4006398
:1012E0009BB21384704790EA400143F00103F5D5A7
:1012F00043F40063138470475C36012010B41F4C24
:101300001F4AA4FB014C136A0CF0F00403F0010324
:1013100004EB1C1CA1EB0C01C9B24C1EA340C1F193
:10132000110440FA04F4234300FA01F4C1F110015E
:10133000234340FA01F198B2138CC9070DD543F04D
:1013400001031384116A01F00101B1EBD03F0ED00B
:1013500043F40063138410BC704723F001039BB275
:101360001384116A01F00101B1EBD03FF0D123F4F5
:1013700000639BB2138410BC704700BFF1F0F0F023
:101380005C3601201B4A01298446136A03F00103DD
:101390002CD0481E8340C1F121002CFA00F00343F9
:1013A0000CFA01F01843C1F12001138C2CFA01F161
:1013B000C9070CD543F001031384116A01F0010140
:1013C000B1EBD07F0DD043F400631384704723F05A
:1013D00001039BB21384116A01F00101B1EBD07FCC
:1013E000F1D123F400639BB21384704743EA4000B9
:1013F000D9E700BF5C36012010B41C4C1C4AA4FB8A
:10140000014C136A0CF0F00403F0010304EB1C1C04
:10141000A1EB0C01C9B2C1F11004A340C1F1110448
:1014200000FA04F4234340FA01F40139234340FA5B
:1014300001F198B2138CCC070AD580EA400143F041
:10144000010309040BD543F40063138410BC7047F7
:1014500080EA400123F0010309049BB2F3D423F492
:1014600000639BB2138410BC704700BFF1F0F0F032
:101470005C360120174A01298446136A26D0C1F13F
:10148000200003F001038340C1F121000CFA00F0B9
:1014900003432CFA01F018430139138C2CFA01F1A3
:1014A000C90709D590EA400143F001030AD423F4A7
:1014B00000639BB21384704723F0010390EA40015C
:1014C0009BB2F4D543F40063138470474FEA700075
:1014D000E2E700BF5C3601204B1E40FA03F330B454
:1014E00013F0010F0D4C238C13D043F0010340FA8D
:1014F00001F10B4D23F0C402C8B22B5C13430A0662
:1015000023F400639BB248BF43F40063238430BCE0
:10151000704723F001039BB2E9E700BF5C3601206E
:101520009CC501084B1E40FA03F330B413F0010FC1
:10153000174C238C12D043F0010340FA01F123F041
:10154000C402144DCBB288B2EB5C13430A040CD432
:1015500023F4006330B1238430BC704723F00103CF
:101560009BB2EAE743F04003F5E743F080022284B0
:1015700040B923F4006343F0C00343F400632384C1
:1015800030BC704723F4006343F08003F5E700BFED
:101590005C3601209CC401084B1E20FA03F310B4F2
:1015A00013F0010F0F4C238C13D043F00103C840FC
:1015B00023F0C4020C49C3B20028CB5C43EA020307
:1015C00023F4006309DB08BF43F04003238410BC0D
:1015D000704723F001039BB2E9E743F408632384D7
:1015E00010BC70475C3601209CC4010808290346E2
:1015F00028BF0821020610B417D44A1E184C40FA1E
:1016000001F1D2B2C8B2134113F0010F238C23D1E0
:1016100023F001039BB2134A23F0C403525C13432B
:1016200023F40063238410BC704743FA01F4C1F132
:1016300008000139FF22C9B202FA00F00B41C1F1E2
:1016400008012043064C02FA01F1C0B20B430146E7
:1016500013F0010F238CDBD043F00103DBE700BF65
:101660005C3601209CC501081029034628BF1021C3
:10167000020430B422D44A1E40FA01F1D2B288B238
:101680002749134113F0010F0B8C14D123F00103F0
:101690009BB2244C5FFA80FC23F0C40214F80C3097
:1016A00013430B84002837D143F0400323F4006335
:1016B0000B8430BC704743F00103EAE743FA01F4BE
:1016C000C1F1100001394FF6FF72C9B202FA00F001
:1016D0000B41C1F11001204302FA01F104B20B43A6
:1016E0000F4980B213F0010F0B8C11D043F00103AE
:1016F00023F0C4020B4DC3B2002CEB5C43EA02039F
:101700000CDA43F0800323F400630B8430BC704791
:1017100023F001039BB2EBE70B8CC7E70B84C1E717
:101720005C3601209CC40108202928BF2021021E0C
:1017300010B41EDB4B1E22FA01F01D49DBB2DA4069
:101740000B8CD2072AD423F001039BB2194C5FFA09
:1017500080FC23F0C402002814F80C3043EA020392
:101760001FDB08BF43F0400323F400630B8410BC6D
:1017700070474FF0FF3C22FA01F4C1F120006144B0
:101780000CFA00F0CBB20A492043DA40C3F120033F
:101790000CFA03F31A430B8CD407D4D543F001039E
:1017A000D4E743F0800323F400630B8410BC70473C
:1017B0005C3601209CC40108704700BF00BA704726
:1017C00000281849B4BF00F10F0303460A681B1133
:1017D00010B582B002EB4303044601A80B600EF083
:1017E000E9FC90B104F00F040123019803FA04F41A
:1017F000204240EA0400019009D00EF04DFD20B1D6
:10180000094A136A43F00103136202B010BD0EF0DF
:1018100043FD0028F9D0044A136A23F00103136240
:1018200002B010BD08BE01205C36012000281A4914
:10183000B4BF00F10F0303460A681B1110B582B054
:1018400002EB4303044601A80B600EF0B3FC90B119
:1018500004F00F040123019803FA04F420420CD091
:1018600020EA040001900EF017FD20B10B4A136A24
:1018700043F00103136202B010BD20EA040001909E
:101880000EF00AFD0028F6D0044A136A23F0010383
:10189000136202B010BD00BF08BE01205C360120FB
:1018A00000281849B4BF00F10F0303460A681B1152
:1018B00010B582B002EB4303044601A80B600EF0A2
:1018C00079FC90B104F00F040123019803FA04F4A9
:1018D000204280EA0400019009D00EF0DDFC20B126
:1018E000094A136A43F00103136202B010BD0EF0FF
:1018F000D3FC0028F9D0044A136A23F001031362D1
:1019000002B010BD08BE01205C360120002810493D
:10191000B4BF00F10F0303460A681B1110B582B073
:1019200002EB4303044601A80B600EF043FC68B1D0
:10193000012004F00F04019B064A00FA04F41C4243
:10194000136A14BF034323F00103136202B010BDF6
:1019500008BE01205C36012000281849B4BF00F100
:101960001F0303460A685B1110B582B002EB8303C4
:10197000044601A80B600EF01DFC90B104F01F049A
:101980000123019803FA04F4204240EA0400019084
:1019900009D00EF081FC20B1094A136A43F001031B
:1019A000136202B010BD0EF077FC0028F9D0044A93
:1019B000136A23F00103136202B010BD08BE0120B8
:1019C0005C36012000281A49B4BF00F11F0303460A
:1019D0000A685B1110B582B002EB8303044601A8CC
:1019E0000B600EF0E7FB90B104F01F040123019897
:1019F00003FA04F420420CD020EA040001900EF017
:101A00004BFC20B10B4A136A43F00103136202B08E
:101A100010BD20EA040001900EF03EFC0028F6D034
:101A2000044A136A23F00103136202B010BD00BF21
:101A300008BE01205C36012000281849B4BF00F11F
:101A40001F0303460A685B1110B582B002EB8303E3
:101A5000044601A80B600EF0ADFB90B104F01F042A
:101A60000123019803FA04F4204280EA0400019063
:101A700009D00EF011FC20B1094A136A43F00103AA
:101A8000136202B010BD0EF007FC0028F9D0044A22
:101A9000136A23F00103136202B010BD08BE0120D7
:101AA0005C36012000281049B4BF00F11F03034633
:101AB0000A685B1110B582B002EB8303044601A8EB
:101AC0000B600EF077FB68B1012004F01F04019B4E
:101AD000064A00FA04F41C42136A14BF034323F0BD
:101AE0000103136202B010BD08BE01205C36012064
:101AF00029B90F4A136A43F040031362704710B5C7
:101B00000B4C00230122D4F820C02CF0400CC4F868
:101B100020C04FEA420C11421FFA83FE03F1010379
:101B20001FFA8CF202D1102BF3D110BD704610BDFC
:101B30005C360120024629B90E490B6A43F0400386
:101B40000B62704710B40B4C01230020D4F820C066
:101B50002CF0400CC4F820C002E00130202805D051
:101B600019424FEA4303F8D010BC7047104610BC2E
:101B7000704700BF5C36012029B9114A136A43F04F
:101B800040031362704710B40D4C00234FF4004221
:101B9000D4F820C02CF0400CC4F820C011421FFA29
:101BA00083FC4FEA520203F1010303D1102BF5D15C
:101BB00010BC7047CCF10F0010BC80B2704700BF62
:101BC0005C36012029B90E4A136A43F040031362C0
:101BD000704710B40A4C4FF000430022D4F820C0E4
:101BE0002CF0400CC4F820C002E00132202A05D0BD
:101BF00019424FEA5303F8D0C2F11F0010BC7047DE
:101C00005C360120044B4FF0804200219B6811613B
:101C100003B11847704700BF58230120054A002030
:101C2000054B06491861136889680133136001B1D7
:101C3000084770477C2C0120000C004064230120E1
:101C40000E490B68DA69920600D17047CA6A586A71
:101C50001F2A11D94B6A013A01331F2A03F01F03CF
:101C6000F9D120224B628B6ACA62CA18013303F091
:101C70001F0310718B6270470132F4E7A821012025
:101C8000014B1868704700BF7C2C0120704700BFD3
:101C900082B000210191019B984211DD094A009117
:101CA000009B934206DC00BF009B01330093009B26
:101CB0009342F8DD019B01330193019B8342EEDBEC
:101CC00002B070479F86010082B000210191019B04
:101CD000984211DD094A0091009B934206DC00BF47
:101CE000009B01330093009B9342F8DD019B01337D
:101CF0000193019B9842EEDC02B070479F86010081
:101D000068B14309012200F01F000549203302FA9F
:101D100000F041F82300BFF34F8FBFF36F8F704780
:101D200000E100E038B100F01F0101234009024A40
:101D30008B4042F82030704700E100E02DE9F04F81
:101D400002210124DFF8ECA34FF4003CDFF8E8B3F4
:101D500004204FF480280825CBF808100023CBF886
:101D60000CC04FF0030CF54A4FF4803EDFF8D093DF
:101D70009460C2F80CE0F34FF34ECBE900A4DFF817
:101D8000CCB3CBE900A1CBF80800CBF80C804FF422
:101D90000028DFF8BCB3CBE901C5CBF800A04FF0B9
:101DA000100CCBF80C804FF48018DFF8A8B3CBE907
:101DB00000A0CBE902C8DFF8A0B34FF005084FF050
:101DC000200CCBF800A0CBE9018C4FF400184FF0A9
:101DD000060CCBF80C804FF04008DFF880B3CBE95D
:101DE00001C84FF4800CCBF800A04FF00708CBF8E7
:101DF0000CC04FF0800CDFF868B3CBE9018C4FF4D6
:101E00000008CBF800A04FF4807CC2E900A3CBF817
:101E10000C804FF08078DFF84CB3D34ACBE900A5B3
:101E2000CBE902C8DFF844B34FF0090C4FF4007857
:101E3000CBF800A0CBE901C84FF0007C4FF00A08B6
:101E4000CBF80CC04FF4806CDFF824B3CBE9018CE5
:101E50004FF08068CBF800A04FF00B0CCBF80C8053
:101E60004FF40068DFF80CB3CBE901C84FF0006C09
:101E7000CBF800A04FF00C08CBF80CC04FF4805CFE
:101E8000DFF8F4B2CBE9018C4FF08058CBF800A01A
:101E90004FF00D0CCBF80C804FF40058DFF8DCB29B
:101EA000CBE901C84FF0005CCBF800A04FF00E0862
:101EB000CBF80CC04FF4804CDFF8C4B2CBE9018CF6
:101EC0004FF08048CBF800A04FF00F0CCBF80C80FF
:101ED0004FF48018DFF8ACB2CBF800A04FF4004A02
:101EE000CBE901CA4FF0004A4FF0030CCBF80CA02D
:101EF0004FF4003BDFF890A2CAE90093CAE9024E12
:101F0000DFF888A24FF4802ECAE90094CAF80CB01A
:101F10004FF4002BCAF80810DFF874A2CAE9009148
:101F2000CAF80800CAF80CE04FF0200EDFF864A2EF
:101F3000CAE901C5CAF80090CAF80CB04FF0100BFE
:101F4000DFF854A2CAE90090CAE902B8DFF84CA24F
:101F50004FF0050B4FF04008CAF80090CAE901BEE7
:101F60004FF4001ECAF80CE04FF0060EDFF830A266
:101F7000CAE901E84FF4800ECAF80090CAF80CE0F4
:101F80004FF0070EDFF81CA2CAF804E04FF0800EF5
:101F9000CAF80090CAF808E04FF4000ECAF80CE046
:101FA0004FF4807EDFF800A2CAE90095CAF808E085
:101FB0004FF0807ECAF80CE04FF0090EDFF8ECA17C
:101FC000CAF804E04FF4007ECAF80090CAF808E0AE
:101FD0004FF0007ECAF80CE04FF00A0EDFF8D0A1F7
:101FE000CAF804E04FF4806ECAF80090CAF808E01E
:101FF0004FF0806ECAF80CE04FF00B0EDFF8B4A182
:10200000CAF804E04FF4006ECAF80090CAF808E07D
:102010004FF0006ECAF80CE04FF00C0EDFF898A1FC
:10202000CAF804E04FF4805ECAF80090CAF808E0ED
:102030004FF0805ECAF80CE04FF00D0EDFF87CA187
:10204000CAF804E04FF4005ECAF80090CAF808E04D
:102050004FF0005ECAF80CE04FF00E0EDFF860A102
:10206000CAF804E04FF4804ECAF80090CAF808E0BD
:102070004FF0804ECAF80CE00EF5023EDFF844A1A6
:10208000CAF800904FF00F09CAF804904FF40049C5
:10209000CAF808904FF00049CAF80C904FF4803A03
:1020A000DFF82491C9E900E3C9F80840C9F80CA099
:1020B0004FF4003ADFF81491C9E900E4C9F80810B8
:1020C000C9F80CA0F246DFF80891C9E900E14FF425
:1020D000802EC9F80800C9F80CE0D646DFF8F49065
:1020E000C9E900AC4FF4002AC9F80850C9F80CA09F
:1020F0004FF0100ADFF8E090C9F808A04FF4801AFA
:10210000C9E900E0C9F80CA0DA46DFF8D090C9F8B8
:1021100004B04FF0200BC9F800E0C9F808B04FF444
:10212000001BC9F80CB04FF0060BDFF8B490C9E9FA
:1021300001B857E0000002408023012070230120F5
:102140000004024000180240001C0240F02301205D
:10215000002401201024012020240120302401200B
:10216000402401205024012000140240602401205A
:1021700090230120A0230120B0230120C0230120AF
:10218000D0230120E023012070240120802401209D
:10219000F024012000250120102501202025012008
:1021A00030250120402501205025012060250120F7
:1021B00090240120A0240120B0240120C02401206B
:1021C000D0240120E0240120702501208025012059
:1021D000F0250120002601201026012020260120C4
:1021E000302601204FF48008C9F800E0C9F80C80BF
:1021F0004FF00708DFF8F893C9F804804FF0800823
:10220000C9F800E0C9F808804FF40008C9F80C804C
:102210004FF48078DFF8DC93C9F808804FF08078BD
:10222000C9E900E5C9F80C804FF00908DFF8C89348
:10223000C9F804804FF40078C9F800E0C9F80880B4
:102240004FF00078C9F80C804FF00A08DFF8AC9323
:10225000C9F804804FF48068C9F800E0C9F8088024
:102260004FF08068C9F80C804FF00B08DFF89093AE
:10227000C9F804804FF40068C9F800E0C9F8088084
:102280004FF00068C9F80C804FF00C08DFF8749329
:10229000C9F804804FF48058C9F800E0C9F80880F4
:1022A0004FF08058C9F80C804FF00D08DFF85893B4
:1022B000C9F804804FF40058C9F800E0C9F8088054
:1022C0004FF00058C9F80C804FF48048DFF83C9379
:1022D000C9F800E04FF00E0EC9E901E84FF0804E5A
:1022E0004FF00F08C9F80CE00EF5023EDFF820931E
:1022F000C9F804804FF40048C9F800E00EF5806E7C
:10230000C9F808804FF00048C9F80C804FF48039B4
:10231000DFF80083C8E900E3C8F80840C8F80C906B
:102320004FF40039DFF8F082C8E900E4C8F80C90F7
:10233000F146C8F80810DFF8E482C8E900E14FF47C
:10234000802EC8F80800C8F80CE0CE46DFF8D0822E
:10235000C8E9009C4FF40029C8F80850C8F80C9050
:102360004FF01009DFF8BC82C8E900E04FF4801E8E
:10237000C8E9029EDFF8B0824FF02009DFF8ACE236
:10238000C8E900EA4FF4001EC8E9029EDFF8A08207
:10239000D946DFF898E2C8F804B04FF0400BC8F80F
:1023A00000E04FF4800EC8E902BEDFF88882DFF853
:1023B0007CE2C8F800E04FF0070EC8F804E04FF0E8
:1023C000800EC8F808E04FF4000EC8F80CE0DFF803
:1023D0006882DFF858E2C8E900E54FF4807EC8F86B
:1023E00008E04FF0807EC8F80CE0DFF85082DFF89C
:1023F0003CE2C8F800E04FF0090EC8F804E04FF4E2
:10240000007EC8F808E04FF0007EC8F80CE0DFF866
:102410003082DFF818E2C8F800E04FF00A0EC8F882
:1024200004E04FF4806EC8F808E04FF0806EC8F802
:102430000CE0DFF81082DFF8F4E1C8F800E04FF0BC
:102440000B0EC8F804E04FF4006EC8F808E04FF037
:10245000006EC8F80CE0DFF8F081DFF8D0E1C8F8D2
:1024600000E04FF00C0EC8F804E04FF4805EC8F8AE
:1024700008E04FF0805EC8F80CE0DFF8D081DFF8AC
:10248000ACE1C8F800E04FF00D0EC8F804E04FF4DE
:10249000005EC8F808E04FF0005EC8F80CE0DFF816
:1024A000B081DFF888E1C8F800E04FF00E0EC8F800
:1024B00004E04FF4804EC8F808E04FF0804EC8F8B2
:1024C0000CE00EF5033EDFF88C81C8F800E04FF019
:1024D0000F0EC8F804E04FF4004EC8F808E04FF0C3
:1024E000004EC8F80CE0DFF870E1DFF87081CEF83C
:1024F0000840CEE900834FF48038CEF80C8008F114
:102500008048DFF85CE108F58838CEE900844FF4B4
:102510000038CEF80810CEF80C8008F18048DFF8BB
:1025200044E108F58058CEF80800CEE900814FF468
:102530008028CEF80C8008F18048DFF82CE1A8F55F
:10254000F838CEE901C5CEF80080E0464FF4002C03
:10255000CEF80CC00CF1804CDFF810E1ACF5BE2CCD
:10256000CEE900C04FF0100CCEF808C04FF4801C2C
:10257000CEF80CC00CF1804CDFF8F4E0ACF55F2C29
:10258000CEE900CA4FF0200CCEF808C04FF4001C72
:10259000CEF80CC0DFF8DCE0DFF8C0C0CEF808B041
:1025A000CEE900C94FF4800CCEF80CC00CF17F5C72
:1025B000DFF8C4E00CF5043CCEF800C04FF0070C87
:1025C000CEF804C04FF0800CCEF808C04FF4000CD9
:1025D000CEF80CC00CF17E5CDFF8A0E00CF5043CFA
:1025E000CEE900C54FF4807CCEF808C048E000BFBB
:1025F0004026012050260120602601209025012040
:10260000A0250120B0250120C0250120D0250120D2
:10261000E02501207026012080260120F0260120DF
:10262000002701201027012020270120000C024054
:10263000302701204027012050270120602701205A
:1026400090260120A0260120B0260120C0260120CE
:10265000D0260120E0260120702701200010024032
:1026600080270120F02701200028012010280120C8
:102670002028012030280120402801205028012056
:102680004FF0807CCEF80CC00CF17C5CDFF8F8E3F6
:102690000CF5043CCEF800C04FF0090CCEF804C095
:1026A0004FF4007CCEF808C04FF0007CCEF80CC090
:1026B0000CF1785CDFF8D4E30CF5043CCEF800C0F4
:1026C0004FF00A0CCEF804C04FF4806CCEF808C06E
:1026D0004FF0806CCEF80CC00CF1705CDFF8B0E30A
:1026E0000CF5043CCEF800C04FF00B0CCEF804C043
:1026F0004FF4006CCEF808C04FF0006CCEF80CC060
:102700000CF1605CDFF88CE30CF5043CCEF800C003
:102710004FF00C0CCEF804C04FF4805CCEF808C02B
:102720004FF0805CCEF80CC00CF1405CDFF868E341
:102730000CF5043CCEF800C04FF00D0CCEF804C0F0
:102740004FF4005CCEF808C04FF0005CCEF80CC02F
:102750000CF1005CDFF844E30CF5043CCEF800C05B
:102760004FF00E0CCEF804C04FF4804CCEF808C0E9
:102770004FF0804CCEF80CC00CF5043CDFF820E3A1
:10278000CEF800C04FF00F0CCEF804C04FF4004C50
:10279000CEF808C04FF0004CCEF80CC04FF4803E8D
:1027A000DFF800C3CCE90023CCF80840CCF80CE0FB
:1027B0004FF4003EDFF8F0C2CCE90024CCF80CE086
:1027C0004FF4802ECCF80810DFF8E0C2CCE90021ED
:1027D000CCF80CE0DFF8D8E2CCF80800F446CEF8EC
:1027E0000020CE46CCF80490D946CCF808B04FF47F
:1027F000800BCCF80CB0C346DFF8B8C2CCE9018539
:102800004FF40028CCF80020CCF80C804FF01008D2
:10281000DFF8A4C2CCF808804FF48018CCE900207F
:10282000CCF80C804FF02008DFF890C2CCF808807C
:102830004FF40018CCE9002ACCF80C804FF00708C0
:10284000DFF87CC2CCF804804FF08008CCF8002080
:10285000CCF808804FF40008CCF80C804FF4807856
:10286000DFF860C2CCF808804FF08078CCE9002512
:10287000CCF80C804FF00908DFF84CC2CCF804808B
:102880004FF40078CCF80020CCF808804FF00078A6
:10289000CCF80C804FF00A08DFF830C2CCF80020EA
:1028A000CCF804804FF48068CCF808804FF0806842
:1028B000CCF80C804FF00B08DFF814C2CCF8048081
:1028C0004FF40068CCF80020CCF808804FF0006886
:1028D000CCF80C804FF00C08DFF8F8C1CCF804807D
:1028E0004FF48058CCF80020CCF808804FF0805886
:1028F000CCF80C804FF00D08DFF8DCC1CCF8048078
:102900004FF40058CCF80020CCF808804FF0005865
:10291000CCF80C804FF00E08DFF8C0C1CCF8048072
:102920004FF48048CCF80020CCF808804FF0804865
:10293000CCF80C804FF00F08DFF8A4C1CCF804806D
:102940004FF40048CCF80020CCF808804FF0004845
:10295000CCF80C804FF48038DFF888C1CCE90073E4
:10296000CCF80840CCF80C804FF40038DFF878C180
:10297000CCE90074CCF80C804FF48028CCF8081017
:10298000DFF868C1CCE90071CCF80800CCF80C8005
:102990004FF40028DFF858C1CCE9007BCCF8085090
:1029A000CCF80C804FF01008DFF848C1CCF8088054
:1029B0004FF48018CCE90070CCF80C804FF0200860
:1029C000DFF834C1CCF808804FF40018CCE9007A65
:1029D000CCF80C804FF48008DFF820C1CCE9007EF1
:1029E000CCF80890CCF80C804FF00708DFF810C145
:1029F000CCF804804FF08008CCF80070CCF8088048
:102A00004FF40008CCF80C804FF48078DFF8F4C065
:102A1000CCF808804FF08078CCE90075CCF80C80B9
:102A20004FF00908DFF8E0C0CCF804804FF40078DC
:102A3000CCF80070CCF808804FF00078CCF80C800F
:102A40004FF00A08DFF8C4C0CCF804804FF4806867
:102A5000CCF80070CCF808804FF08068CCF80C807F
:102A60004FF00B08DFF8A8C0CCF804804FF40068E2
:102A7000CCF80070CCF808804FF00068CCF80C80DF
:102A80004FF00C0846E000BF60280120902701208D
:102A9000A0270120B0270120C0270120D027012036
:102AA000E02701207028012080280120F028012043
:102AB000302901200029012010290120202901208E
:102AC000402901205029012060290120902801205F
:102AD000A0280120B0280120C0280120D0280120F2
:102AE000E02801207029012080290120F0290120FF
:102AF000002A0120102A0120202A0120302A01204A
:102B0000402A0120502A0120602A0120902901201A
:102B1000A0290120DFF864C3CCF804804FF480586A
:102B2000CCF80070CCF808804FF08058CCF80C80BE
:102B30004FF00D08DFF848C3CCF804804FF400587C
:102B4000CCF80070CCF808804FF00058CCF80C801E
:102B50004FF00E08DFF82CC3CCF804804FF4804807
:102B6000CCF80070CCF808804FF08048CCF80C808E
:102B7000DFF814C3CCF800700F27CCF804704FF4C2
:102B80000047CCF808704FF00047CCF80C704FF4B9
:102B9000803CBE4FC7E90063BC60C7F80CC04FF46F
:102BA000003CBB4FC7E90064C7F80CC04FF4802C51
:102BB000B960B84FC7E90061B860C7F80CC04FF4FE
:102BC000002CB54FC7E9006BBD60C7F80CC04FF0D3
:102BD000100CB24FC7F808C04FF4801CC7E9006062
:102BE000C7F80CC04FF0200CAD4FC7F808C04FF429
:102BF000001CC7E9006AC7F80CC04FF4800CA94F4D
:102C0000C7E9006EC7F80890C7F80CC04FF0070C72
:102C1000A54FC7F804C04FF0800C3E60C7F808C04D
:102C20004FF4000CC7F80CC04FF4807C9F4FC7F8DE
:102C300008C04FF0807CC7E90065C7F80CC04FF0B2
:102C4000090C9B4FC7F804C04FF4007C3E60C7F8E6
:102C500008C04FF0007CC7F80CC04FF00A0C954F2D
:102C6000C7F804C04FF4806C3E60C7F808C04FF04E
:102C7000806CC7F80CC04FF00B0C8F4F3E60C7F84C
:102C800004C04FF4006CC7F808C04FF0006CC7F8E0
:102C90000CC04FF00C0C894FC7F804C04FF4805C97
:102CA0003E60C7F808C04FF0805CC7F80CC04FF01A
:102CB0000D0C834FC7F804C04FF4005C3E60C7F8AA
:102CC00008C04FF0005CC7F80CC04FF00E0C7D4FF1
:102CD000C7F804C04FF4804C3E60C7F808C0C44633
:102CE000C7F80C804FF00F08774F3E604FF4004656
:102CF000C7E901864FF000464FF48038FE60734FFD
:102D0000734EC6E90073C6F80C804FF40038B46007
:102D1000704EC6E90074C6F80C804FF48028B1608C
:102D20006D4EC6E90071C6F80C804FF40028B06003
:102D30006A4EC6E9007BB560C6F80C804FF01008FB
:102D4000674EC6F808804FF48018C6E90070C6F8D0
:102D50000C804FF02008634EC6F808804FF400182E
:102D6000C6E9007AC6F80C804FF480085E4EC6E9CA
:102D7000007EC6F80C804FF0070EC6F808904FF0A2
:102D800080085A4E4FF48079C6E901E84FF40008F4
:102D900037604FF00B0EC6F80C804FF08078544E21
:102DA000C6E9029875604FF40078524D4FF00C0957
:102DB000376009262F60C5E901684FF000783E466C
:102DC0000A27C5F80C804FF480684B4DC5E901789F
:102DD0004FF080682E604FF0FF37C5F80C804FF43D
:102DE0000068464DC5E901E84FF00068C5F80C8061
:102DF0004FF480582E60424DC5E901984FF080583D
:102E00002E60C5F80C804FF400583E4DEC63AE4682
:102E10003D4CEB62A1466B63AF63E3626363A76300
:102E20000E27E163C5E90933C4E909330D25374CA1
:102E3000C4E901584FF000582660354DC4F80C80A5
:102E40004FF48048334CC4E9017825272660C4F844
:102E50000CC0F046304C4FF00F0C8EF844708EF8DA
:102E600030704F464FF0260926604FF400464FF071
:102E7000270E87F84490352750E000BFB029012085
:102E8000C0290120D0290120E0290120702A012039
:102E9000802A0120F02A0120002B0120102B012084
:102EA000202B0120302B0120402B0120502B012012
:102EB000602B0120902A0120A02A0120B02A0120A5
:102EC000C02A0120D02A0120E02A0120002002404F
:102ED000702B0120802B0120F02B0120002C0120E1
:102EE000102C0120202C0120302C0120402C01200E
:102EF000502C0120602C0120902B0120A02B0120C0
:102F0000B02B0120A8210120F0210120C02B01209D
:102F100064230120D02B0120E02B0120DFF8389121
:102F2000C4E901C6C8F800904FF00046DFF82C81D4
:102F3000A9F54C49E6604FF0340CC8F800904FF00A
:102F40002609474E88F83090DFF81881DFF818918D
:102F5000C8F83CB0DFF814B188F844E0CBF83C0086
:102F6000062088F830E0DE46C9F83C004FF0FF301C
:102F7000CBF82C30CBF83430C8F83800CEF8380015
:102F8000C9F82C30C8F82C30C8F834308EF844C05A
:102F90008EF830C04FF0804C354CCBE90933834676
:102FA0003448C0E90D3BC0E909338346C36280F869
:102FB000447080F830704F46C0F83CA02E48C8F8E6
:102FC000000000F58060CEF8000000F58060CBF8CE
:102FD000000000F544404FF0FF3BC9E90933C8E960
:102FE0000933C9F80000C9F83430AB60C9F838B00B
:102FF0004FF04009C6F800C0DFF880C0C5F804A053
:10300000C4F808C0C4F804A0C6E901131C4B2B6027
:1030100003F5A2332360136A23F0706313625368CD
:1030200023F040035360D36823F4405343F48053A8
:103030009360136823F4405343F480531360D368C0
:1030400023F44053D3604723C2F8189087F84430E4
:1030500087F83030BDE8F08F00100140F0210120EA
:103060005823012038220120102301208022012032
:10307000702C0120C8220120004800403029012086
:10308000000C0040054BA3FB0023DB0803EB83028D
:10309000A0EB420000EB0310C0B27047CDCCCCCC0B
:1030A000704700BFF0B4204E844633686BB91F4DA3
:1030B00001271F4C0FCD0FC40FCD0FC40FCD0FC470
:1030C00095E80F0084E80F003760BCF1700F15D051
:1030D000BCF1710F0FD1174B154A1B7803F03F015C
:1030E0000A2B505C0ED00B2B12D1D37A6FF3C7137F
:1030F000D372F0BC7047FF20F0BC70470D4BF0BCA2
:1031000018787047937A6FF3C7139372F0BC7047C7
:103110000C2B03D100231373F0BC70470D2BEBD1A4
:1031200080235373F0BC7047C42C0120040001209D
:10313000802C0120C02C0120F0B5124E84468E4612
:1031400033686BB9104D0127104C0FCD0FC40FCD54
:103150000FC40FCD0FC495E80F0084E80F0037604F
:10316000BCF1700F0AD0BCF1710F06D1084B074AB1
:103170001B7803F03F0302F803E0F0BD044B83F833
:1031800000E0F0BDC42C012004000120802C0120AF
:10319000C02C0120124A20F4101010B4136A5840B9
:1031A0000840584040F0020310F4806F0D4813624D
:1031B0000CD00D4A6FF001014FF0FF340B4B116042
:1031C0006FF0030204601A6010BC7047064A0221C7
:1031D0000124064B1160042204601A6010BC704781
:1031E0005C360120500001205400012058000120CD
:1031F00010B4124C124B226A13400343114853403F
:103200000B40534043F002025B0522620CD50E4A8C
:103210006FF001014FF0FF340C4B11606FF00302AF
:1032200004601A6010BC7047074A02210124074B52
:103230001160042204601A6010BC70475C360120E3
:103240000000DBFF50000120540001205800012045
:10325000704700BF704700BF2DE9F84F20220021C2
:103260003A48002510F036FE39494FF6FF76394CC2
:103270000D604CF6CC423849DFF8E0B00E603849BA
:103280005846DFF8E0A00D603749DFF8E0900E60A7
:103290003749DFF8E0800D603749384F0E60384914
:1032A0000D6038490D6038490D8038490D60384946
:1032B0000D603849C4E90622C4E90422C4E90222A7
:1032C000C4E900220D60012231460BF013FD3146A6
:1032D000012250460BF00EFD3146012248460BF00C
:1032E00009FD3146012240460BF004FD3146012222
:1032F00038460BF0FFFC3146012227480BF0FAFC60
:10330000264A02232648CBF81E200121254A2362A3
:10331000CAF81E20244A6562C9F81E20234A1E4CA2
:10332000C8F81E20224AC4F81E000420C7F81E2038
:10333000204A214C11604FF48062204923600860CC
:10334000FF211F48BDE8F84F10F0C4BDD02C01206C
:10335000A82D01205C3601205C000120602D012099
:1033600034360120F02C0120640001208836012031
:10337000D82D01203C2D012060000120842D01204A
:103380005836012054360120D4360120D836012089
:10339000DC360120E0360120AC2D0120A0C601085A
:1033A000B4C60108A4C60108A8C60108ACC6010835
:1033B000B0C601085000012054000120580001202F
:1033C0004439012008B5084B1B6A9B0500D408BD91
:1033D0000DF0C2FB0028FADD00224FF0FF31BDE8FE
:1033E000084008F009B800BF5C36012029490B6885
:1033F0001BB1294B1B68002B3ED000222748284BCD
:1034000010B5284CD3F80A300A60026026492748D4
:1034100022600360264A0B6023B3D2F80A30002BE7
:1034200035D124494FF0FF304B82234B234C186099
:1034300023492448244B086020681A60E8B91D4AD3
:10344000224C234B526A20461A600BF029FE40B1F1
:103450002278204B53F8223098471F4A13680133D3
:10346000136010BD13494FF6FF70D2F80A40CB84A9
:10347000002CDAD14C82D8E77047184B0222A0F515
:103480008070196807F0B8FF0023236010BD4FF06B
:10349000FF30CAE7D02D0120303601203439012019
:1034A000F02C012030390120C82C0120D42D01201E
:1034B000883601205C3601204C0001203C39012077
:1034C000843601203C2D0120AC3601204C360120F1
:1034D000003601201C030120142D01204039012059
:1034E00009F0ECBF81EA0003034ADBB232F81300B3
:1034F00080EA1120704700BFE0C6010889B102468A
:1035000001444FF6FF7010B4074C12F8013B4340E2
:103510008A42DBB234F8133083EA1020F5D110BCB4
:1035200070474FF6FF707047E0C6010881EA00035C
:1035300003F00F0303EB831303EB831383EA1111EF
:1035400089B281EA101000F00F0000EB801000EB50
:10355000801080EA111080B2704700BF8446E9B144
:1035600001444FF6FF701CF8013B80EA03028C45D2
:1035700002F00F0202EB821202EB821282EA1012B8
:1035800090B280EA131303F00F0303EB831303EBF2
:10359000831383EA101398B2E5D170474FF6FF709A
:1035A000704700BF0021044B4FF40F72034899602D
:1035B000C3E9001110F08EBCE8360120F43601207A
:1035C00038B9012010B4044CC4E90012A36010BC47
:1035D00070470020704700BFE836012008B1002086
:1035E000704770B51C46074B0E46154601464FF412
:1035F0000F72184610F06EFC034601209C60C3E970
:10360000006570BDF4360120704700BF70B5234CD3
:10361000237A63BB224B234DD3E90160227994F8CE
:1036200005C09100637A02F03F0201F4407103F09B
:103630000F03614406FB013300FB03222378002BB8
:1036400002F1FF3208BF0123F5B117490868174995
:103650000E88A18901EB061101440020A847228CA5
:10366000238822F00102DBB22284238070BD1A0677
:1036700006D55B0604D10E4B0E4DD3E90160CDE7B4
:10368000002528462E46C9E72388228CDBB242F06B
:10369000010243F480732284238070BD5C360120D4
:1036A000E8360120F9D40008200F0120602D012008
:1036B000F436012001D50008F8B51C4C207A40BB37
:1036C0001B4B1C4DD3E901C7227966799100637ABF
:1036D00002F03F0201F4407103F00F0331440CFB90
:1036E000013315490E8807FB0322A1892378013A8B
:1036F00001EB0611114E002B366808BF012331443F
:10370000A847228C238822F00102DBB22284238086
:10371000F8BD030607D510F07F0004D1084B094D12
:10372000D3E901C7D0E7034DCEE700BF5C360120E7
:10373000E8360120FDD40008602D0120200F012073
:10374000F436012025D50008234B30B41A7A62B331
:1037500011060FD41A880021188CD2B2197140F0CA
:103760000100597142F480721972188459721A80DA
:1037700030BC704712F07F02ECD1184829215A73EF
:1037800004681973A1105C71D0E9012521F03F0193
:103790000120013A294318725A721A8C197122F0C9
:1037A000010242F400721A84E2E70D4C0420198CE5
:1037B0005A7321F00102A168187342F40072197162
:1037C000D4E900011A84012401384A1E1C72587180
:1037D0005A7230BC704700BF5C360120F4360120BD
:1037E000E83601202DE9F041514F94B051497E78DF
:1037F00068463B7A324610F0DBFB9DF9003013B38C
:103800000DF101054C4C4FF00D080A2B2CD0636BC9
:1038100015F8012C13B319689868236888619A62B7
:10382000DB6959064FD40020FEF74EFA2368DB69A6
:103830005A06F8D5636B13B11A68DB68936115F902
:10384000013B002BE1D1082E2BD8082E2FD8DFE822
:1038500006F04A2E54592E2E2E2E450023689A62C9
:10386000DB695B06DFD5EAE7626B72B311689068CB
:1038700023688861C3F82880D3F81CC01CF0400F6F
:103880000AD10020FEF720FA2368DA695006F8D53D
:10389000626B02B311689068D2688A6115F8012CD6
:1038A000BCE7952E03D13B7A8BB3802B37D03B8876
:1038B0003A8CDBB242F0010243F480733A843B80DD
:1038C00014B0BDE8F081636BB6E72368C3F82880C5
:1038D000DA695206D5D515F8012CC0E7FFF734FF99
:1038E00014B0BDE8F0813A8C3B8822F00102DBB2D3
:1038F0003A843B8014B0BDE8F081FFF787FE14B036
:10390000BDE8F081FFF7D8FE14B0BDE8F0813A8C35
:1039100001217B7022F0010339703B84D0E73B8C9E
:103920000021032223F0010379703A703B84C7E73A
:103930005C360120E0C80108A8210120030602D559
:10394000024BD86870470220704700BFF436012050
:10395000002808DC064B20F001004FF40F7202FB38
:103960000030836B03B970470E200DF0EBB800BF39
:10397000F436012002062AD52DE9F84FB44DEC6843
:10398000002C22DC40F0800024F00106B0F5FC7F22
:103990000EDAB0F5F87F18DB6FF4F87318440628D8
:1039A00000F23581DFE800F04D698E73811420004C
:1039B00040F2F633984208D14FF40F7381F00201C0
:1039C00003FB0653C1F340019963BDE8F88F7047CC
:1039D0004FF40F7201F00F01002002FB065302FBAF
:1039E000045259611063F0E74FF40F774FF000096C
:1039F000702907FB04FA07FB065705EB0A083A692A
:103A0000D8F804007B69C7F8309000FB0233D8F87F
:103A10000820B869796202FB0302C8F8289002F115
:103A2000FF325CD068D8202900F0A980302953D11A
:103A3000FB69C8F820205B02C8F82C90C8F8303029
:103A4000C3E74FF40F7303FB04577A6A302ABCD1E3
:103A5000F9690029B9DDFA6A0132C2F30800FA6295
:103A6000002800F0A580B2EB412FAEDB4FF40F73BE
:103A7000002203FB0453DA62A7E74FF40F72002021
:103A800002FB065302FB0452D96110639DE74FF419
:103A90000F72002002FB065302FB045210631A69E6
:103AA00002F47F42114319618FE74FF40F72002037
:103AB00002FB065302FB045210631A7C42EA012106
:103AC000196182E74FF40F72002002FB065302FBDC
:103AD00004529961106378E710297FF476AF4FF4B0
:103AE0000F7303FB06539B6B002B3FF46EAF0E204E
:103AF000BDE8F84F0DF026B8912954D0EC297FF499
:103B000064AF0AF13C0B4FF400764946AB443246B1
:103B1000584610F0DFF955F80A30D8F804505846E6
:103B20004C499AB205FB03F3ADB2A1F86C204A8070
:103B300012FB05F2A1F86E50CD80D8F8085005FBB5
:103B400003F3ADB212FB05F2A1F870508D81A1F81C
:103B500072200A7D14441A149BB2A1F87420CA671B
:103B60004FF401720C758B6710F01AF90122BB6BD0
:103B7000C8E90B96FA61002B3FF427AFB7E70AF1CB
:103B80003C010123C8F820202046294409F0B8FC54
:103B9000FB69BA6B5B02C8F82C90C8F83030002A79
:103BA0003FF413AFA3E7BB6B002B3FF40EAF9EE7D0
:103BB00003FB06F20123204605EB020C3C32A91858
:103BC000DCF820201A44CCF8202009F0ABFCFA6A7B
:103BD000F969C2F30803002B7FF445AF002A1346AE
:103BE000B8BF02F2FF13B1EB632F7FF73CAF4FF486
:103BF0000F7707FB06539B6B002B3FF434AF07FB9B
:103C000004570E200CF09EFFFA6AF9692BE74FF477
:103C10000F7303FB0453DA6AB2F5007F02D2134438
:103C200083F83C104FF40F73013203FB0453596ABD
:103C3000DA6230297FF4C9AED96900297FF7C5AEB1
:103C4000B2EB412FFFF6C1AE0022DA62BDE600BF43
:103C5000F4360120980001202DE9F04110F0800594
:103C600034D0984FFE68002E33DC40F080030446C9
:103C7000B3F5FC7F0EDAB3F5F87F2EDB6FF4F87244
:103C80001344062B00F2D480DFE803F04F969EA683
:103C9000AE2B3D0040F2F632934200F0AD8040F290
:103CA000F732934219D14FF40F7303FB0673DA68AE
:103CB0005D690AB145F01005EDB2DFF80C8214F031
:103CC000070F0CBF01230023C8F800302846BDE8C9
:103CD000F08100252846BDE8F0810025DFF8E88165
:103CE000EDE74FF40F7226F0010302FB037302FBB2
:103CF0000671DB684D69002BDED045F01005DFF85A
:103D0000C881EDB2DBE7714A0021136823F4404318
:103D100013604FF40F7303FB06731A6B5963002A89
:103D200071D15025DFF8A081C9E7DFF89C81D8F870
:103D30000030002B6BD04FF40F7106FB01F17818A7
:103D4000C36A5A1CC3F30803C2620344C2F30802E5
:103D500093F83C50002A61D04FF40F7303FB0673B5
:103D60001A6B0AB1013A1A634FF40F7303FB06731F
:103D7000DA69002AA3DD596A2029A0D1DB6AC3F3DE
:103D8000080100299BD1002BB8BF03F2FF13B2EB4F
:103D9000632F94DD4FF40F7202FB06731B6B002B35
:103DA0008DD026F0010302FB03739B6B002B86D0A2
:103DB0000E200CF0C7FE82E74FF40F73DFF8088186
:103DC00003FB06731D7F7AE74FF40F73DFF8F8806B
:103DD00003FB06731D7E72E74FF40F73DFF8E88074
:103DE00003FB06735D7E6AE74FF40F73DFF8D8803C
:103DF00003FB06731D7C62E74FF40F7303FB06732E
:103E00001B6B002B8DD05825DFF8BC8057E74FF493
:103E10000F7303FB067393F8285050E7026A3C3196
:103E20000123013239440262304609F069FB93E70D
:103E30004FF40F7306FB03F3F818C26A511CC2F368
:103E40000802C1620244C1F3080192F83C5041B932
:103E5000026A3C330132F91801230262304609F04C
:103E60004FFB4FF40F7303FB0673DA69002A02DD80
:103E7000596A20290CD04FF40F7303FB06731A6B99
:103E8000002A3FF42BAF013ADFF83C801A6316E7B3
:103E9000DB6AC3F308010029EDD1002BB8BF03F2A0
:103EA000FF13B2EB632FE6DD26F001034FF40F7230
:103EB00002FB03739B6B002BDDD00E200CF042FE47
:103EC000D9E700BFF4360120E43601203036012066
:103ED0000E4B19781A8C01F00F00092802D812F045
:103EE000100F0DD093F801C0063142F011020CF111
:103EF000010C01F00F001A8483F801C0187070479C
:103F000022F0110218701A84704700BF5C3601203D
:103F10000E4B19781A8C01F00F00092802D812F004
:103F2000100F0DD093F801C0063942F011020CF1C8
:103F3000FF3C01F00F001A8483F801C0187070472D
:103F400022F0110218701A84704700BF5C360120FD
:103F5000704700BF064A074B11681A6819B15968C3
:103F60005A601960704799889A801980704700BF1D
:103F7000D42D01205C360120064A074B11681A68CF
:103F800019B199689A601960704719891A81198066
:103F9000704700BFD42D01205C360120064A074B34
:103FA00011681A6819B1D968DA601960704799897F
:103FB0009A811980704700BFD42D01205C36012002
:103FC000064A074B11681A6819B119691A61196014
:103FD0007047198A1A821980704700BFD42D0120BA
:103FE0005C360120064A074B11681A6819B15969F5
:103FF0005A6119607047998A9A821980704700BF88
:10400000D42D01205C360120064A074B11681A683E
:1040100019B199699A6119607047198B1A831980CF
:10402000704700BFD42D01205C360120064A074BA3
:1040300011681A6819B1D969DA6119607047998BEA
:104040009A831980704700BFD42D01205C3601206F
:10405000014B1A8C5A7070475C360120024A138C4F
:1040600043F30003137070475C360120014B0122BB
:104070001A607047D02D0120024A136A83F00103B1
:10408000136270475C360120024A136A23F0010371
:10409000136270475C360120024A136A43F0010341
:1040A000136270475C36012000B5012083B00BF02D
:1040B0007DFF10B903B05DF804FB01A80CF07AF89D
:1040C0000028F7D0064B0121064A1B789DF8040012
:1040D000C3F3C20352F82330984703B05DF804FBE2
:1040E000FCBD0120BC02012010B5012082B00BF004
:1040F0005DFF08B902B010BD0A4B01A81C790CF095
:1041000059F80028F6D0084B04F01F01074A1B7825
:104110009DF80400C3F3C20352F82330984702B05D
:1041200010BD00BF5C360120FCBD0120BC02012097
:1041300010B5002082B00BF039FF08B902B010BDF5
:104140000C4B01A81C790CF035F80028F6D00A4B6E
:1041500004F01F011B6853B9084B094A1B780198EA
:10416000C3F3C20352F82330984702B010BD034B8B
:10417000044AF3E75C360120D42D0120FCBD012068
:10418000FC020120DC02012000B5012083B00BF00D
:104190000DFF10B903B05DF804FB0BF01BFF0BF033
:1041A0001BFF01A80CF006F80028F3D00BF018FF55
:1041B000014600229DF80400C9B2FCF7D7F801902F
:1041C0000CF06AF803B05DF804FB00BF00B50120F5
:1041D00083B00BF0EBFE10B903B05DF804FB0BF0FD
:1041E000F9FE0BF0F9FE01A80BF0E4FF0028F3D074
:1041F0000BF0F6FE074B01469DF804001A6AC9B29F
:1042000002F00102FCF7B2F801900CF045F803B09F
:104210005DF804FB5C36012000B5002083B00BF094
:10422000C5FE10B903B05DF804FB0BF0D3FE0BF034
:10423000D3FE01A80BF0BEFF0028F3D00BF0D0FE98
:104240000A4B01461A6852B981B2BDF80400FCF766
:10425000C5F801900CF020F803B05DF804FB0022D3
:104260000198FCF7FBF80190F4E700BFD42D012082
:1042700000B5002083B00BF099FE10B903B05DF8D3
:1042800004FB0BF0A7FE0BF0A7FE01A80BF092FFBA
:104290000028F3D00BF0A4FE0D4B01461B6873B948
:1042A0000C4B81B2BDF804001A6A02F00102FCF75F
:1042B00095F801900BF0F0FF03B05DF804FB054B9F
:1042C00001981A6A02F00102FCF7C8F80190F1E7C0
:1042D000D42D01205C36012000B5012083B00BF005
:1042E00065FE10B903B05DF804FB0BF075FE0BF032
:1042F00071FE01A80BF05EFF0028F3D00BF070FEFA
:1043000000229DF80410C0B2FCF730F80BF092FECA
:1043100003B05DF804FB00BF00B5002083B00BF0D4
:1043200045FE10B903B05DF804FB0BF055FE0BF031
:1043300051FE01A80BF03EFF0028F3D00BF050FE19
:10434000084A12684AB9BDF8041080B2FCF746F872
:104350000BF070FE03B05DF804FB00220199FCF73E
:104360007DF8F5E7D42D012000B5012083B00BF0D6
:104370001DFE10B903B05DF804FB0BF02DFE0BF031
:1043800029FE01A80BF016FF0028F3D00BF028FE41
:10439000064B9DF80410C0B21A6A02F00102FBF746
:1043A000E5FF0BF047FE03B05DF804FB5C3601202F
:1043B00000B5002083B00BF0F9FD10B903B05DF833
:1043C00004FB0BF009FE0BF005FE01A80BF0F2FE5A
:1043D0000028F3D00BF004FE0C4A12686AB90C4AAC
:1043E00080B2BDF80410126A02F00102FBF7F6FF7A
:1043F0000BF020FE03B05DF804FB054B01991A6A2F
:1044000002F00102FCF72AF8F2E700BFD42D0120E8
:104410005C36012000B5012083B00BF0C7FD10B958
:1044200003B05DF804FB0BF0D5FD0BF0D5FD01A842
:104430000BF0C0FE0028F3D00BF0D2FD0BF02CFFE8
:104440000028EDD001980BF0F5FD03B05DF804FBFA
:1044500000B5002083B00BF0A9FD10B903B05DF8E2
:1044600004FB0BF0B7FD0BF0B7FD01A80BF0A2FEAB
:104470000028F3D00BF0B4FD0BF00EFF0028EDD0B8
:1044800001980BF0D7FD03B05DF804FB00B50120E7
:1044900083B00BF08BFD10B903B05DF804FB0BF09B
:1044A0009BFD0BF097FD01A80BF084FE0028F3D0D4
:1044B00001980BF0BFFD03B05DF804FB00B50020D0
:1044C00083B00BF073FD10B903B05DF804FB0BF083
:1044D00083FD0BF07FFD01A80BF06CFE0028F3D0EC
:1044E00001980BF0A7FD03B05DF804FB10B582B096
:1044F0000DF107000AF0D4FD38B1054C00229DF8FB
:1045000007102078FBF732FF207002B010BD00BF0B
:104510005C36012010B582B00DF107000AF0C0FD35
:1045200048B1064C9DF80710226A207802F001027B
:10453000FBF71CFF207002B010BD00BF5C360120ED
:1045400000B583B00DF107000AF0AAFD18B1034BC6
:104550009DF807201A7003B05DF804FB5C3601205B
:1045600000B583B00DF107000AF09AFD18B1034BB6
:104570009DF807201A7103B05DF804FB5C3601203A
:1045800000B583B00DF107000AF08AFD18B1034BA6
:104590009DF807201A7203B05DF804FB5C36012019
:1045A00000B583B00DF107000AF07AFD18B1034B96
:1045B0009DF807201A7303B05DF804FB5C360120F8
:1045C00000B583B00DF107000AF06AFD18B1034B86
:1045D0009DF807205A7003B05DF804FB5C3601209B
:1045E00000B583B00DF107000AF05AFD18B1034B76
:1045F0009DF807205A7103B05DF804FB5C3601207A
:1046000000B583B00DF107000AF04AFD18B1034B65
:104610009DF807205A7203B05DF804FB5C36012058
:1046200000B583B00DF107000AF03AFD18B1034B55
:104630009DF807205A7303B05DF804FB5C36012037
:1046400010B5012082B00BF0B1FC08B902B010BD6A
:104650000DF103000AF024FD0028F7D001A89DF811
:1046600003400BF0A7FD0028F0D0084B04F01F0119
:10467000074A1B789DF80400C3F3C2038DF80300BA
:1046800052F82330984702B010BD00BFFCBD012096
:10469000BC02012010B5002082B00BF087FC08B9E5
:1046A00002B010BD0DF103000AF0FAFC0028F7D0AB
:1046B00001A89DF803400BF07DFD0028F0D0094BC8
:1046C00004F01F011B6853B1074B084A1B7801987F
:1046D000C3F3C20352F82330984702B010BD024B17
:1046E000034AF3E7D42D0120FCBD0120DC020120A8
:1046F000FC02012000B5012083B00BF057FC10B97B
:1047000003B05DF804FB0BF065FC0DF107000AF047
:10471000C7FC0028F4D09DF807000BF0BDFD03B0E6
:104720005DF804FB104B30B51C6883B001A824B1C0
:104730000AF040FD78B903B030BD0AF003FD00284F
:10474000F9D00A4D2246BDF804102888FBF746FE32
:10475000288003B030BD054C002201992068FBF78A
:104760007DFE206003B030BDD42D01205C360120D9
:10477000124B10B51B6882B001A823B10AF01AFDD4
:1047800088B902B010BD0AF0DDFC0028F9D00C4C4D
:10479000BDF80410226A208802F00102FBF71EFE19
:1047A000208002B010BD064C0199226A206802F0F8
:1047B0000102FBF753FE206002B010BDD42D012092
:1047C0005C3601200C4B00B51B6883B001A843B1D7
:1047D0000AF0F0FC10B1094B019A1A6003B05DF8C1
:1047E00004FB0AF0AFFC0028F8D0044BBDF804200D
:1047F0001A8003B05DF804FBD42D01205C36012043
:104800000C4B00B51B6883B001A843B10AF0D2FC81
:1048100010B1094B019A5A6003B05DF804FB0AF02D
:1048200091FC0028F8D0044BBDF804209A8003B016
:104830005DF804FBD42D01205C3601200C4B00B543
:104840001B6883B001A843B10AF0B4FC10B1094B56
:10485000019A9A6003B05DF804FB0AF073FC00282B
:10486000F8D0044BBDF804201A8103B05DF804FBB6
:10487000D42D01205C3601200C4B00B51B6883B0A1
:1048800001A843B10AF096FC10B1094B019ADA6015
:1048900003B05DF804FB0AF055FC0028F8D0044B87
:1048A000BDF804209A8103B05DF804FBD42D0120EB
:1048B0005C3601200C4B00B51B6883B001A843B1E6
:1048C0000AF078FC10B1094B019A1A6103B05DF847
:1048D00004FB0AF037FC0028F8D0044BBDF8042094
:1048E0001A8203B05DF804FBD42D01205C36012050
:1048F0000C4B00B51B6883B001A843B10AF05AFC09
:1049000010B1094B019A5A6103B05DF804FB0AF03B
:1049100019FC0028F8D0044BBDF804209A8203B09B
:104920005DF804FBD42D01205C3601200C4B00B552
:104930001B6883B001A843B10AF03CFC10B1094BDD
:10494000019A9A6103B05DF804FB0AF0FBFB0028B2
:10495000F8D0044BBDF804201A8303B05DF804FBC3
:10496000D42D01205C3601200C4B00B51B6883B0B0
:1049700001A843B10AF01EFC10B1094B019ADA619B
:1049800003B05DF804FB0AF0DDFB0028F8D0044B0F
:10499000BDF804209A8303B05DF804FBD42D0120F8
:1049A0005C36012000B5002083B00BF0FFFA10B98F
:1049B00003B05DF804FB0BF00DFB0C4B1B6833B12F
:1049C00001A80AF0F7FB0028F2D0019808E00DF1E9
:1049D00002000AF0B7FB0028EAD0BDF802000190FF
:1049E0000BF05AFC03B05DF804FB00BFD42D01208E
:1049F00000B583B00DF107000AF052FB60B19DF9DC
:104A000007309DF80700002B084B1B68B8BF60F00B
:104A1000FF0023B10AF082FA03B05DF804FB80B214
:104A20000AF05AFA03B05DF804FB00BFD42D012050
:104A30000C4B00B51B6883B001A82BB10AF0B2FA89
:104A400030B903B05DF804FB0AF08AFA0028F8D008
:104A50000122BDF8041004480AF04CF903B05DF8D7
:104A600004FB00BFD42D0120602D01200C4B00B5AC
:104A70001B6883B001A82BB10AF094FA30B903B0D7
:104A80005DF804FB0AF06CFA0028F8D00122BDF8AA
:104A9000041004480AF02EF903B05DF804FB00BFCF
:104AA000D42D0120883601200C4B00B51B6883B043
:104AB00001A82BB10AF076FA30B903B05DF804FB17
:104AC0000AF04EFA0028F8D00122BDF8041004487C
:104AD0000AF010F903B05DF804FB00BFD42D0120EB
:104AE0003C2D0120034B04481B680BB10AF05ABA55
:104AF0000AF036BAD42D01205C360120034B04485D
:104B00001B680BB10AF04EBA0AF02ABAD42D012064
:104B100060360120034B04481B680BB10AF042BA0F
:104B20000AF01EBAD42D012064360120034B04483C
:104B30001B680BB10AF036BA0AF012BAD42D012064
:104B400068360120034B04481B680BB10AF02ABAEF
:104B50000AF006BAD42D012070360120034B044818
:104B60001B680BB10AF01EBA0AF0FAB9D42D012065
:104B700074360120034B04481B680BB10AF012BACB
:104B80000AF0EEB9D42D012078360120144B30B54F
:104B90001B6883B0134C25699BB101A80AF002FA87
:104BA00018B100200BF002FA10B9256103B030BD36
:104BB0000BF010FA01980BF06FFB0028F5D003B052
:104BC00030BD0DF102000AF0CBF90028EDD0BDF8A0
:104BD0000230002001930BF0E9F90028E5D0E7E767
:104BE000D42D01205C36012030B583B00DF10600D4
:104BF0000AF0A8FA58B10E4BBDF806501C680D48D3
:104C00003CB10AF0CFF90C4A13691D44156103B099
:104C100030BD0AF0A5F9084B1A8A83F826401544DE
:104C200083F827409C74DC741D8203B030BD00BF44
:104C3000D42D0120803601205C3601200A480B4922
:104C40001430096810B40A4C50F8042C0368246826
:104C500053402340534040F8043C11B110BC0AF0CB
:104C6000A1B910BC0AF07CB95C360120D42D01201A
:104C7000300F012000B5012083B00BF097F910B977
:104C800003B05DF804FB0BF0A5F90BF0A5F901A842
:104C90000BF090FA0028F3D00BF0A2F901469DF832
:104CA0000400C9B2FBF7E8FD01900BF0F5FA03B080
:104CB0005DF804FB00B5012083B00BF077F910B963
:104CC00003B05DF804FB0BF087F90BF083F901A842
:104CD0000BF070FA0028F3D00BF082F99DF8041065
:104CE000C0B2FBF7C9FD0BF0A5F903B05DF804FBFA
:104CF00010B582B00DF107000AF0D2F930B1044CC2
:104D00009DF807102078FBF7B7FD207002B010BDAA
:104D10005C36012000B5002083B00BF047F910B9D4
:104D200003B05DF804FB0BF055F90BF055F901A841
:104D30000BF040FA0028F3D00BF052F9094B014672
:104D40001B6853B981B2BDF80400FBF7A9FD0190BF
:104D50000BF0A2FA03B05DF804FB0198FBF7C2FD6B
:104D60000190F5E7D42D012000B5002083B00BF0B1
:104D70001DF910B903B05DF804FB0BF02DF90BF031
:104D800029F901A80BF016FA0028F3D00BF028F946
:104D9000084A12684AB9BDF8041080B2FBF780FDDA
:104DA0000BF048F903B05DF804FB0199FBF79AFD9D
:104DB000F6E700BFD42D01200F4B10B51B6882B061
:104DC00001A823B10AF0F6F970B902B010BD0AF0DB
:104DD000B9F90028F9D0094CBDF804102088FBF778
:104DE0005FFD208002B010BD044C01992068FBF7E4
:104DF00079FD206002B010BDD42D01205C36012069
:104E000000B5012083B00BF0D1F810B903B05DF804
:104E100004FB0BF0DFF80BF0DFF801A80BF0CAF988
:104E20000028F3D00BF0DCF8074B01469DF8040096
:104E30001A6AC9B202F00102FBF754FB01900BF0B1
:104E40002BFA03B05DF804FB5C36012000B50120AD
:104E500083B00BF0ABF810B903B05DF804FB0BF0B6
:104E6000BBF80BF0B7F801A80BF0A4F90028F3D0B9
:104E70000BF0B6F8064B9DF80410C0B21A6A02F0A7
:104E80000102FBF72FFB0BF0D5F803B05DF804FB34
:104E90005C36012010B582B00DF107000AF000F970
:104EA00048B1064C9DF80710226A207802F00102F2
:104EB000FBF718FB207002B010BD00BF5C3601206C
:104EC00000B5012083B00BF071F810B903B05DF8A4
:104ED00004FB0BF07FF80BF07FF801A80BF06AF9E8
:104EE0000028F3D00BF07CF8014600229DF8040066
:104EF000C9B2FBF7F7FA01900BF0CEF903B05DF8F9
:104F000004FB00BF00B5012083B00BF04FF810B9CF
:104F100003B05DF804FB0BF05FF80BF05BF801A841
:104F20000BF048F90028F3D00BF05AF800229DF856
:104F30000410C0B2FBF7D6FA0BF07CF803B05DF8B2
:104F400004FB00BF10B582B00DF107000AF0A8F80D
:104F500038B1054C00229DF807102078FBF7C2FA03
:104F6000207002B010BD00BF5C36012000B50120EA
:104F700083B00BF01BF810B903B05DF804FB0BF025
:104F800029F80BF029F801A80BF014F90028F3D048
:104F90000BF026F8014600229DF80400C9B2FBF789
:104FA000A1FA03B05DF804FB00B5012083B00AF05C
:104FB000FDFF10B903B05DF804FB0BF00DF80BF02A
:104FC00009F801A80BF0F6F80028F3D00BF008F868
:104FD00000229DF80410C0B2FBF784FA03B05DF81C
:104FE00004FB00BF00B583B00DF107000AF058F8CC
:104FF00030B1054B00229DF807101878FBF772FAC4
:1050000003B05DF804FB00BF5C36012000B5002052
:1050100083B00AF0CBFF10B903B05DF804FB0AF0CF
:10502000D9FF0AF0D9FF01A80BF0C4F80028F3D08B
:105030000AF0D6FF0D4B01461B6873B90C4B81B2C9
:10504000BDF804001A6A02F00102FBF783FA01902E
:105050000BF022F903B05DF804FB054B01981A6AC6
:1050600002F00102FBF7BAFA0190F1E7D42D01201A
:105070005C36012000B5002083B00AF097FF10B91C
:1050800003B05DF804FB0AF0A7FF0AF0A3FF01A834
:105090000BF090F80028F3D00AF0A2FF0C4A126837
:1050A0006AB90C4A80B2BDF80410126A02F001021B
:1050B000FBF750FA0AF0BEFF03B05DF804FB054BA6
:1050C00001991A6A02F00102FBF788FAF2E700BFC1
:1050D000D42D01205C360120124B10B51B6882B024
:1050E00001A823B10AF066F888B902B010BD0AF031
:1050F00029F80028F9D00C4CBDF80410226A208849
:1051000002F00102FBF726FA208002B010BD064C27
:105110000199226A206802F00102FBF75FFA206021
:1051200002B010BDD42D01205C36012000B5002056
:1051300083B00AF03BFF10B903B05DF804FB0AF03E
:1051400049FF0AF049FF01A80BF034F80028F3D01A
:105150000AF046FF0A4B01461A6852B981B2BDF8FF
:105160000400FBF7F7F901900BF096F803B05DF837
:1051700004FB00220198FBF731FA0190F4E700BF2D
:10518000D42D012000B5002083B00AF00FFF10B924
:1051900003B05DF804FB0AF01FFF0AF01BFF01A833
:1051A0000BF008F80028F3D00AF01AFF084A12683A
:1051B0004AB9BDF8041080B2FBF7CCF90AF03AFF07
:1051C00003B05DF804FB00220199FBF707FAF5E74D
:1051D000D42D0120104B30B51C6883B001A824B138
:1051E00009F0E8FF78B903B030BD09F0ABFF002843
:1051F000F9D00A4D2246BDF804102888FBF7AAF919
:10520000288003B030BD054C002201992068FBF7CF
:10521000E5F9206003B030BDD42D01205C360120BB
:1052200000B5002083B00AF0C1FE10B903B05DF8EC
:1052300004FB0AF0CFFE0AF0CFFE01A80AF0BAFF85
:105240000028F3D00AF0CCFE094B01461A6832B1AF
:1052500000220198FBF7C2F903B05DF804FB81B2AC
:10526000BDF80400FBF776F903B05DF804FB00BF5E
:10527000D42D012000B5002083B00AF097FE10B9AC
:1052800003B05DF804FB0AF0A7FE0AF0A3FE01A834
:105290000AF090FF0028F3D00AF0A2FE084A126834
:1052A00032B100220199FBF799F903B05DF804FBD4
:1052B000BDF8041080B2FBF74DF903B05DF804FBB4
:1052C000D42D01200F4B10B51C6882B001A824B169
:1052D00009F070FF70B902B010BD09F033FF00286B
:1052E000F9D0094B2246BDF804101888FBF732F9B3
:1052F00002B010BD044B002201991868FBF76EF94B
:1053000002B010BDD42D01205C360120064B1A6876
:10531000034608461AB100221946FBF75FB999B255
:1053200080B2FBF717B900BFD42D012000B50120D2
:1053300083B00AF03BFE10B903B05DF804FB0AF03D
:1053400049FE0AF049FE01A80AF034FF0028F3D014
:105350000AF046FE01469DF80400C9B2FBF7E4FAE4
:1053600001900AF099FF03B05DF804FB00B501203D
:1053700083B00AF01BFE10B903B05DF804FB0AF01D
:105380002BFE0AF027FE01A80AF014FF0028F3D034
:105390000AF026FE9DF80410C0B2FBF7C5FA0AF029
:1053A00049FE03B05DF804FB10B582B00DF10700B3
:1053B00009F076FE30B1044C9DF807102078FBF719
:1053C000B3FA207002B010BD5C36012000B5002099
:1053D00083B00AF0EBFD10B903B05DF804FB0AF0EE
:1053E000F9FD0AF0F9FD01A80AF0E4FE0028F3D067
:1053F0000AF0F6FD094B01461B6853B981B2BDF8AE
:105400000400FBF7A5FA01900AF046FF03B05DF82F
:1054100004FB0198FBF7BEFA0190F5E7D42D0120BB
:1054200000B5002083B00AF0C1FD10B903B05DF8EB
:1054300004FB0AF0D1FD0AF0CDFD01A80AF0BAFE86
:105440000028F3D00AF0CCFD084A12684AB9BDF82A
:10545000041080B2FBF77CFA0AF0ECFD03B05DF8B3
:1054600004FB0199FBF796FAF6E700BFD42D012063
:105470000F4B10B51B6882B001A823B109F09AFE4A
:1054800070B902B010BD09F05DFE0028F9D0094CDA
:10549000BDF804102088FBF75BFA208002B010BD35
:1054A000044C01992068FBF775FA206002B010BD2A
:1054B000D42D01205C360120114A107800F00F0332
:1054C000092B0ED8138CD90617D49F2801D8D907D9
:1054D00005D5603043F00103C0B213841070FAF7B1
:1054E000EDBE0630138CFF2888BF43F00103C0B225
:1054F00043F0100310701384E7E70630F7E700BFAE
:105500005C3601200F4A107800F00F03092B138C32
:1055100011D8D9060BD49F2801D8D90705D56038F2
:1055200043F00103C0B213841070FAF7C7BE052818
:1055300098BF43F00103063843F01003C0B2138450
:105540001070E8E75C36012000B583B00DF107006C
:1055500009F0A6FD68B19DF807306BB1094A1078D3
:10556000B0FBF3F103FB11005170C0B21070FAF7F9
:10557000A5FE03B05DF804FB0A2213468DF8072050
:10558000ECE700BF5C36012000B583B00DF10700E9
:1055900009F086FD70B1094B4FF0000C9DF8072013
:1055A0005978187883F801C001FB0200C0B2187066
:1055B000FAF784FE03B05DF804FB00BF5C360120FF
:1055C00000B5012083B00AF0F1FC10B903B05DF81A
:1055D00004FB0AF0FFFC0AF0FFFC01A80AF0EAFD58
:1055E0000028F3D00AF0FCFC01469DF80400C9B283
:1055F000FBF74AFA01900AF04FFE03B05DF804FB96
:1056000000B5012083B00AF0D1FC10B903B05DF8F9
:1056100004FB0AF0E1FC0AF0DDFC01A80AF0CAFD77
:105620000028F3D00AF0DCFC9DF80410C0B2FBF7B0
:105630002BFA0AF0FFFC03B05DF804FB10B582B052
:105640000DF1070009F02CFD30B1044C9DF8071056
:105650002078FBF719FA207002B010BD5C360120EB
:1056600000B5012083B00AF0A1FC10B903B05DF8C9
:1056700004FB0DF1030009F013FD0028F6D001A88A
:105680000AF098FD0028F1D02E4B1B78C3F3C2031B
:10569000013B062B4CD8DFE803F04235281F150CE0
:1056A000040000229DF803109DF80400FAF71AFF89
:1056B000DCE79DF803109DF80400FBF7E5F90AF01C
:1056C000EBFDD3E700229DF803109DF80400FAF7E4
:1056D00009FF0AF0E1FDC9E79DF803109DF80400F9
:1056E000FBF722F90AF0D8FDC0E7174B9DF803102D
:1056F0001A6A9DF8040002F00102FAF7F3FE0AF0BC
:10570000CBFDB3E7104B9DF803101A6A9DF8040017
:1057100002F00102FAF72AFE0AF0BEFDA6E79DF8A4
:1057200003109DF80400FBF7A7F80AF0B5FD9DE70C
:1057300000229DF803109DF80400FAF717FE0AF006
:10574000ABFD93E7FCBD01205C360120FFF788BF6D
:1057500000B5002083B00AF029FC10B903B05DF851
:1057600004FB0AF037FC0AF037FC01A80AF022FD1E
:105770000028F3D00AF034FC094B01461B6853B9EA
:1057800081B2BDF80400FBF793F901900AF084FDA3
:1057900003B05DF804FB0198FBF7AAF90190F5E767
:1057A000D42D012000B5002083B00AF0FFFB10B912
:1057B00003B05DF804FB0AF00FFC0AF00BFC01A833
:1057C0000AF0F8FC0028F3D00AF00AFC084A126834
:1057D0004AB9BDF8041080B2FBF76AF90AF02AFC56
:1057E00003B05DF804FB0199FBF782F9F6E700BF0F
:1057F000D42D01200F4B10B51B6882B001A823B136
:1058000009F0D8FC70B902B010BD09F09BFC00286B
:10581000F9D0094CBDF804102088FBF749F9208025
:1058200002B010BD044C01992068FBF761F92060BB
:1058300002B010BDD42D01205C36012010B500202F
:1058400084B00AF0B3FB18B3624C2368DBB90DF1E6
:10585000060009F077FCD8B1BDF80630029303A822
:105860000AF0A8FCA0B12368A3B15B4B1B78C3F37B
:10587000C203013B062B00F29B80DFE803F04B40A4
:10588000352E261F190002A809F094FC0028E6D145
:1058900004B010BD504B1B78C3F3C203013B062B71
:1058A00000F28E80DFE803F07B6E61584E453D00CC
:1058B0000022DDE90210FAF791FEE9E7DDE90210C6
:1058C000FBF716F90AF0E8FCE2E70022DDE9021036
:1058D000FAF784FE0AF0E0FCDAE7DDE90210FBF7F4
:1058E00059F80AF0D9FCD3E73C4B1A6ADDE90210FB
:1058F00002F00102FAF772FE0AF0CEFCC8E7374B5D
:105900001A6ADDE9021002F00102FAF7A7FD0AF0B7
:10591000C3FCBDE7DDE90210FAF7E4FF0AF0BCFCC6
:10592000B6E70022BDF80810BDF80C00FAF712FE29
:10593000AEE7BDF80810BDF80C00FBF7B9F80AF0A7
:10594000ABFCA5E70022BDF80810BDF80C00FAF783
:1059500001FE0AF0A1FC9BE7BDF80810BDF80C00A1
:10596000FAF7F6FF0AF098FC92E71C4BBDF8081016
:105970001A6ABDF80C0002F00102FAF7EBFD0AF01A
:105980008BFC85E7154BBDF808101A6ABDF80C00B2
:1059900002F00102FAF722FD0AF07EFC78E7BDF87A
:1059A0000810BDF80C00FAF77BFF0AF075FC6FE7F2
:1059B0000022DDE90210FAF751FD0AF06DFC67E7FD
:1059C0000022BDF80810BDF80C00FAF707FD0AF038
:1059D00063FC5DE7D42D0120FCBD01205C36012075
:1059E00010B5002082B00AF0E1FA08B902B010BD8B
:1059F0000DF1030009F054FB0028F7D09DF90330A6
:105A000001A89DF80340002BB8BF64F0FF040AF022
:105A1000D1FB0028EAD0544B1B686BB1534B1B7869
:105A2000C3F3C203013B062B00F28D80DFE803F0D5
:105A300044392E271F1812004C4B1B78C3F3C203A6
:105A4000013B062B00F28780DFE803F075695D55A6
:105A50004C443D00002221460198FAF7BFFDC5E7FE
:105A600021460198FBF744F80AF016FCBEE7002235
:105A700021460198FAF7B2FD0AF00EFCB6E721467E
:105A80000198FAF787FF0AF007FCAFE7384B214689
:105A900001981A6A02F00102FAF7A0FD0AF0FCFB75
:105AA000A4E7334B214601981A6A02F00102FAF783
:105AB000D5FC0AF0F1FB99E721460198FAF712FFAD
:105AC0000AF0EAFB92E70022A1B2BDF80400FAF75F
:105AD00041FD8BE7A1B2BDF80400FAF7E9FF0AF037
:105AE000DBFB83E70022A1B2BDF80400FAF732FD28
:105AF0000AF0D2FB7AE7A1B2BDF80400FAF728FF5A
